:020000040800F2
:10000000E00B0020593B0008E9260008EB26000819
:1000100000000000000000000000000000000000E0
:10002000000000000000000000000000EF260008B3
:100030000000000000000000F1260008F326000880
:10004000893B000800000000893B0008893B00084C
:10005000893B0008893B0008893B00084F320008B3
:100060000000000083250008893B0008893B000848
:10007000893B0008633A0008893B00080000000043
:10008000893B00080000000000000000893B0008D8
:10009000893B0008893B0008893B0008893B000830
:1000A000893B0008893B0008893B0008893B000820
:1000B000893B00080348854604F026FA00480047BB
:1000C00035220008E00B002010B50446B5488442F4
:1000D00007D10121401500F0B0FE0021601500F0AD
:1000E000ACFE10BD10B50022C268AF4B1A400C79AF
:1000F00064030B6823438C682343CC6823430C6957
:1001000023434C6923431A43C26010BD00210160A0
:1001100001718160C160016141617047002904D0B3
:10012000826801231A43826003E0826802231A4333
:1001300082607047002A03D003690B43036102E029
:1001400003698B4303617047002905D0C26801230E
:10015000DB031A43C26004E0C2680123DB039A4355
:10016000C2607047002905D0C26801239B031A436F
:10017000C26004E0C26801239B039A43C2607047D7
:10018000002905D0C2680123DB051A43C26004E0E0
:10019000C2680123DB059A43C26070470B04134316
:1001A0000362704710B50A460021C1681F24A406E7
:1001B0000B46A34319460B4613431946C16010BDB5
:1001C000002905D0C26801239B051A43C26004E0E0
:1001D000C26801239B059A43C2607047002807D07C
:1001E000724989680122D2051143704A916006E084
:1001F0006E4989680122D20591436C4A916070472B
:10020000002807D069498968012292051143674A8D
:10021000916006E065498968012292059143634A2D
:1002200091607047002807D0604989680122120652
:1002300011435E4A916006E05C498968012212061A
:1002400091435A4A9160704710B50B460021846A69
:100250001C43846200BF0C4614432146416110BD1B
:10026000002905D0C26801235B031A43C26004E081
:10027000C26801235B039A43C2607047002905D01E
:10028000C26801231B041A43C26004E0C268012350
:100290001B049A43C2607047002905D0C26801233D
:1002A0001B031A43C26004E0C26801231B039A4384
:1002B000C260704730B501460020002200238C68E0
:1002C0000125ED072C438C6000BF8C68E30FDB0732
:1002D000521C0F242403A24201D0002BF5D18C68BC
:1002E000E40FE407002C01D1086C00E0002030BDD1
:1002F0008168102211438160704781680422114394
:10030000816070470146086C80B27047002904D0B4
:10031000C26801231A43C26003E0C2685208520057
:10032000C2607047C26802239A43C260C2680A432F
:10033000C2607047002A03D043680B43436002E069
:1003400043688B434360704730B50246002000236A
:10035000012424060C40002C05D0946801252D06AC
:10036000AC43234600E013681C460C40002C01D02F
:10037000012000E0002030BD0160704710B502464A
:100380000020002354680C40234614680C40002CC5
:1003900003D0002B01D0012000E0002010BD01603F
:1003A000704700000024014003D2FFFF00270140F6
:1003B0000168584A1140016000210160416081607C
:1003C000C1605549884208D15349083949680F220C
:1003D0001143514A083A516035E04F49143188427F
:1003E00008D14D4908394968F02211434A4A083A70
:1003F000516028E048492831884209D146490839E6
:1004000049680F2212021143434A083A51601AE028
:1004100041493C31884209D13F49083949680F2296
:10042000120311433C4A083A51600CE03A495031FA
:10043000884208D13849083949680F22120411430B
:10044000354A083A5160704710B500220268334BB4
:100450001A400C6A8B6823430C6923434C6923437D
:100460008C692343CC6923434C6A23438C6A23431E
:100470001A430260CB6843600B6883604B68C360BB
:1004800010BD0021016041608160C1600161416176
:100490008161C1610162416281627047002904D0BB
:1004A000026801231A43026003E00268194B1A40F4
:1004B00002607047416070470146486880B27047EB
:1004C000002A03D003680B43036002E003688B43F8
:1004D00003607047014600200F4A083A12680A403C
:1004E000002A01D0012000E0002070470A490839A5
:1004F0004860704701460020074A083A12680A40DF
:10050000002A01D0012000E000207047024908398C
:1005100048607047FEFF0000080002400F80FFFFA8
:100520003E483F490860002048608860C8603D48F8
:100530004861704700213A498279002A35D00A463D
:10054000126803689A430B461A600A4652680368A9
:100550009A430B465A60027951180A6803681A4395
:100560000A602F4A926803689A432D4B9A601A4694
:10057000D26803689A432A4BDA604279102A0CD178
:100580001A46926803681A43254B9A601A46D26845
:1005900003681A43224BDA600DE021494279511871
:1005A0000A6803681A430A6005E0027951180A686C
:1005B00003689A430A6070470021016001710C21B1
:1005C0004171002181717047154909690143144A3D
:1005D0001161704701460020114A52690A40002A01
:1005E00001D0012000E0002070470D4948617047AC
:1005F0000146002000220A4B1B680B401A46084B9C
:100600005B690B40002B03D0002A01D0012000E0E1
:100610000020704702494861704700000000940FB5
:1006200000040140FFFF6B0010B504460920C0061E
:10063000844209D10121480400F0F1FB002101208E
:10064000400400F0ECFB30E06E48844208D1012108
:10065000000200F0E4FB0021200200F0E0FB24E0B7
:100660006948844208D10121000200F0D8FB002132
:10067000200200F0D4FB18E06448844209D1012133
:10068000080500F0CCFB00210120000500F0C7FBAD
:100690000BE05F48844208D10121880500F0BFFBD0
:1006A00000210120800500F0BAFB10BDF0B50A461C
:1006B00000210023002400BF3DE001258D402B4692
:1006C00015681D402C469C4234D11579012D02D06D
:1006D0001579022D16D185684F000326BE40B5431B
:1006E000856055794E00B5408668354385608588BC
:1006F00001268E40B5438580858896798E40B6B2B6
:100700003543858005684F000326BE40B54305602C
:1007100015794E00B540066835430560C5684F0041
:100720000326BE40B543C560D5794E00B540C668C6
:100730003543C560491C1029BFD3F0BD3549016060
:10074000002101710221417100218171C171704745
:1007500008B5012212040092009A0A430092009AFE
:10076000C261C161009AC261C2690092C26900920D
:1007700008BD02460020138A0B40002B01D0012047
:1007800000E0002070470146088A704702460020BA
:10079000938A0B40002B01D0012000E0002070471D
:1007A0000146888A70478161704701857047002A39
:1007B00001D0816100E00185704781827047F0B50A
:1007C000002300244D07EE0E1546B5402B46CD10F4
:1007D000AE0005462035AD594E07F70E0F26BE4038
:1007E000B543CE10B60007462037BD51CD10AE0040
:1007F0003D46AD591D432C46CD10AD003E467451CB
:10080000F0BD00000004004800080048000C00484B
:1008100000140048FFFF000000218278002A27D042
:10082000274A03231B02D21803789B109B00D15840
:1008300002789207D30EFF229A400B469343194643
:1008400042789207120E03789B07DB0E9A40114301
:100850001B4A03231B02D21803789B109B00D15024
:100860000278D306DB0E01229A40154B1A6007E08E
:100870000278D306DB0E01229A40114B80331A60B6
:100880007047002905D00F4A126902430D4B1A61C7
:1008900004E00C4A126982430A4B1A61704704282B
:1008A00006D10949096904221143074A116105E08B
:1008B0000549096904229143034A11617047000008
:1008C00000E100E000ED00E000E000E0FD4800682D
:1008D00001210843FB49086008464068FA4908407E
:1008E000F849486008460068F8490840F54908603A
:1008F00008460068012189048843F24908600846D7
:1009000040683F2109048843EE4948600846C06AB0
:1009100000090001C8620846006BFF21543188437A
:10092000E84908630846406B4008400048630020DF
:10093000886070470021E34A9170114688707047C3
:1009400010B502460021002300205111002902D1D8
:10095000DC4C23680BE0012902D1DA4C236A06E063
:10096000022902D1D74C636A01E0D64C636BD106F1
:10097000C90E01248C401C40002C01D0012000E055
:10098000002010BD38B5002000900024002500BFD5
:100990001120FFF7D5FF05460098401C0090052167
:1009A00009030098884201D0002DF1D01120FFF7F3
:1009B000C7FF002801D0012400E00024204638BDF4
:1009C00001460020BF4A1068F82302469A431046A9
:1009D000CA001043BB4A10607047002806D0B949CE
:1009E000096801221143B74A116005E0B549096859
:1009F00049084900B34A1160704701460020B14AD6
:100A0000506BF82302469A431046CA001043AD4A81
:100A100050637047002806D0AA49496B0122114350
:100A2000A84A516305E0A749496B49084900A54A0E
:100A300051637047002806D0A249496B04229143B4
:100A4000A04A516305E09F49496B042211439D4A26
:100A5000516370479B49096A49084900994A1162E4
:100A60001146096A04229143964A11621146096AA5
:100A70000143116270479349096A18229143914AD0
:100A800011621146096A014311627047002806D0BD
:100A90008C49496A012211438A4A516205E0894919
:100AA000496A49084900874A51627047854A526835
:100AB0007B23DB039A43834B5A601A4652680346F2
:100AC0000B431A437F4B5A607047002807D07D497B
:100AD00009680122120611437A4A116006E0794939
:100AE0000968012212069143764A11607047014657
:100AF0000020744AD06A0009000102460A431046E9
:100B0000704AD0627047002807D06E4909680122F8
:100B1000D20411436B4A116006E06A490968012258
:100B2000D2049143674A116070476649C8717047A3
:100B300001460020634A50688008800002460A434C
:100B40001046604A506070475E4840680C2108407B
:100B50007047014600205B4A5068F02302469A43E2
:100B6000104602460A431046564A506070470146F6
:100B70000020544A506807231B0202469A4310463D
:100B800002460A4310464F4A506070474D49496833
:100B90000122920391434B4A51601146496882B247
:100BA0001143484A51601146096B92159143454AD9
:100BB00011631146096B020C1143424A11637047DD
:100BC0004049096B402291433E4A11631146096B2B
:100BD0000143116370473B49096B10229143394A25
:100BE00011631146096B0143116370473549096B65
:100BF00089088900334A11631146096B0143116367
:100C00007047FEB5044600250026002001900090A4
:100C100000272C4840680C2108400546002D04D0D0
:100C2000042D05D0082D28D105E02948206027E0B3
:100C30002848206024E0234840680F2189040840A8
:100C40000646204840680321C90308400190B00CC3
:100C5000861C0198002803D11F48704320600BE0D8
:100C60001848C06A0007000F401C009019480099FE
:100C700003F09CF87043206002E01548206000BF3C
:100C800000BF10484068F021084005462D09134870
:100C9000475D2068F84060600A4840680721090203
:100CA000084005462D0A0D48475D6068F840A06081
:100CB0000448006BFF2101310840884212D00848E7
:100CC000E0601DE0001002400CB8FFF8FFFFF6FEE8
:100CD00000127A000024F40000093D00000000200A
:100CE000809FD500754840680121890308408842EB
:100CF00003D0A0684008E06002E0A0688008E060DF
:100D00006E48006B40210840402802D06C482061AA
:100D100002E00120C00320616848006B10210840F8
:100D2000102802D06748606101E020686061634874
:100D3000006B8007800F002802D1A068A06119E035
:100D40005E48006B8007800F012802D12068A061F7
:100D500010E05A48006B8007800F022802D1800300
:100D6000A06107E05548006B8007800F032801D180
:100D70005448A061FEBD5149096A01434F4A1162BE
:100D80007047002807D04D49096A0122D203114358
:100D90004A4A116206E04949096A0122D203914395
:100DA000464A11627047002807D04449096A012267
:100DB00012041143414A116206E04049096A0122C6
:100DC000120491433D4A11627047002905D03B4A05
:100DD00052690243394B5A6104E0384A52698243EE
:100DE000364B5A617047002905D0344A9269024354
:100DF000324B9A6104E0314A926982432F4B9A61E7
:100E00007047002905D02D4AD26902432B4BDA6185
:100E100004E02A4AD2698243284BDA6170470029EC
:100E200005D0264A926A0243244B9A6204E0234A80
:100E3000926A8243214B9A627047002905D01F4A6B
:100E4000D26802431D4BDA6004E01C4AD268824338
:100E50001A4BDA607047002905D0184A126902431C
:100E6000164B1A6104E0154A12698243134B1A614A
:100E70007047002905D0114A527A02430F4B5A722B
:100E800004E00E4A527A82430C4B5A7270470B4868
:100E9000406A012109060843084948627047014633
:100EA0000020064A92680A40002A01D0012000E092
:100EB000002070470149887270470000001002400E
:100EC0001280000000127A003A4800688007800F04
:100ED000384908600020886000213648C1600161FF
:100EE00041618069FF2101310843324988617047BF
:100EF000014600202F4A10688008800002460A43FD
:100F000010462C4A10607047002905D0294A126803
:100F10000243284B1A6004E0264A12688243254B9C
:100F20001A607047002905D0224A12680243214BFB
:100F30001A6004E01F4A126882431E4B1A60704711
:100F400030B500228B071C0F0F23A3401A46194B04
:100F500008338C10A4001B599343164C08348D1091
:100F6000AD00635123468C10A4001B598C07250F3C
:100F70000446AC4023430F4C08348D10AD00635140
:100F800030BD0C49896901430A4A916170470146A5
:100F90000020084A9269FF2301331A40002A01D039
:100FA000012000E000207047024989690143014A9D
:100FB000916170470000014010B50446F748844233
:100FC00009D101218803FFF738FF002101208003A8
:100FD000FFF733FF0BE0F248844208D101214804B7
:100FE000FFF739FF002101204004FFF734FF10BD57
:100FF000F0B589B005460E4600240020089000BFD9
:1010000000BF28684008400028606C68032109037D
:10101000204688430446B06804436C602C68E1486D
:101020000440F168706808433169084304432C6048
:10103000AC680321090220468843044670690443D2
:10104000AC606846FFF7DDFDD448854202D10698C2
:10105000089001E00298089028680121C90308401F
:10106000002809D0326851001923089A5A431046C3
:1010700002F09CFE074608E0326891001923089AA6
:101080005A43104602F092FE07466421384602F0A9
:101090008DFE0401200964214843381A079028680E
:1010A0000121C903084000280AD00799C900084651
:1010B0003230642102F07AFE4007400F044309E019
:1010C0000799090108463230642102F06FFE0007DB
:1010D000000F0443AC8109B0F0BD4B21C901016090
:1010E000002141608160C1600C21016100214161EA
:1010F000704710B5002242680F2424021346A34310
:101100001A464C680B6823438C682343CC682343FE
:101110001A43426010BD0021016041608160C160DE
:101120007047002904D0026801231A43026003E0DB
:1011300002685208520002607047002A03D0036818
:101140000B43036002E003688B4303607047002990
:1011500005D002680123DB031A43026004E0026841
:101160000123DB039A4302607047002905D082689F
:101170000123DB021A43826004E082680123DB0260
:101180009A4382607047002905D042680123DB043E
:101190001A43426004E042680123DB049A43426040
:1011A0007047002905D0426801239B041A4342601E
:1011B00004E0426801239B049A4342607047002A7E
:1011C00003D043680B43436002E043688B434360B2
:1011D0007047002905D042680123DB031A434260AF
:1011E00004E042680123DB039A4342607047002910
:1011F00005D042680123DB051A43426004E04268DF
:101200000123DB059A43426070474269120E1206C1
:10121000426142690A4342617047028AFF231B020E
:101220001A400282028A0A4302827047002904D0CF
:10123000026802231A43026003E0026802239A4311
:1012400002607047826803231B059A4382608268AC
:101250000A4382607047002905D0426801231B05BC
:101260001A43426004E0426801231B059A4342602E
:101270007047426803235B059A43426042680A4311
:1012800042607047C1690122D2039143C161704736
:10129000CA05D20D028570470146888CC005C00D75
:1012A000704742681202120A426042680B061A43F3
:1012B00042607047002905D0026801235B031A438E
:1012C000026004E0026801235B039A4302607047F6
:1012D00002680123DB029A43026002680A4302604B
:1012E0007047426810239A43426042680A43426052
:1012F0007047426820239A43426042680A43426032
:101300007047002905D0426801239B031A434260BD
:1013100004E0426801239B039A434260704700291E
:1013200004D0826808231A43826003E0826808239D
:101330009A4382607047028AD2B20282028A0B020A
:101340001A4302827047002904D0826820231A437E
:10135000826003E0826820239A43826070470029FC
:1013600004D0826810231A43826003E0826810234D
:101370009A4382607047826807235B049A438260C5
:1013800082684B041A438260704742691202120A53
:10139000426142690B061A434261704700380140BE
:1013A00000440040F3E9FFFF826804239A4382600F
:1013B00082680A4382607047002904D08268022351
:1013C0001A43826003E0826802239A438260704776
:1013D000002905D0826801239B031A43826004E040
:1013E000826801239B039A438260704782680123CD
:1013F000DB039A43826082680A4382607047026816
:101400001F235B059A43026002684B051A43026082
:10141000704702681F231B049A43026002680B0492
:101420001A4302607047002A03D083680B4383602D
:1014300002E083688B4383607047826801235B030B
:101440009A43826082680A4382607047F8B5034617
:101450000024002600960025002018460E04340EB5
:10146000CEB200960127009EB7403D46022C01D126
:10147000001D02E0032C00D10830002A03D00668CA
:101480002E43066002E00668AE430660F8BD002AFF
:1014900003D0038B0B43038302E0038B8B43038353
:1014A0007047826801231B039A43826082680A4363
:1014B0008260704702460020D3690B40002B01D0A8
:1014C000012000E0002070470162704770B50246BD
:1014D0000B4600240021002500201E04350ED9B241
:1014E00001268E403146012D02D11668314006E0BA
:1014F000022D02D15668314001E0966831401C0C43
:101500000126A6403446D6693440002903D0002C79
:1015100001D0012000E0002070BD10B500230022A2
:101520000B0C01249C402246026210BD10B50446FB
:10153000FE48844208D10121C014FFF77EFC00213F
:10154000E014FFF77AFC56E001208007844208D1BE
:1015500001210846FFF77FFC00210120FFF77BFCFB
:1015600049E0F348844208D101210220FFF773FCCF
:1015700000210220FFF76FFC3DE0EE48844208D1D5
:1015800001211020FFF767FC00211020FFF763FC0A
:1015900031E0E948844208D101218015FFF75BFC66
:1015A0000021A015FFF757FC25E0E448844209D14B
:1015B00001210804FFF741FC002101200004FFF78E
:1015C0003CFC18E0DE48844209D101214804FFF7C1
:1015D00034FC002101204004FFF72FFC0BE0D94828
:1015E000844208D101218804FFF727FC0021012053
:1015F0008004FFF722FC10BD00220288CB4B9842EA
:1016000006D001239B07984202D0C94B984203D1D0
:10161000CD4B1A404B881A43C64B984203D0CB4B54
:101620001A400B891A4302804B68C3620B880385FA
:10163000BE4B984208D0C14B984205D0C04B98424F
:1016400002D0C04B984201D18B7A0386012383825A
:1016500070470021C9434160002101800181418020
:10166000817270470185828270470A460021018895
:10167000B54B19400B461343194601807047416230
:101680007047C16270470146486A70470146088D3D
:101690007047002904D0028802231A43028004E024
:1016A0000288A94B6E331A4002807047002904D08B
:1016B000028804231A43028004E00288A24B6C33A0
:1016C0001A4002807047002904D0028880231A4300
:1016D000028004E002889C4B103B1A400280704755
:1016E0000288994B68331A40028002880A430280BC
:1016F00070470288954B1A40028002880A43028094
:101700007047002904D0028801231A43028004E0B4
:1017100002888D4B6F331A40028070470A884B88CD
:101720001A438B881A43CB881A430B891A434B8977
:101730001A438B891A4344231A52704700210180AF
:1017400041808180C1800181418181817047002970
:1017500007D04422125A0123DB031A4344231A52AE
:1017600005E04422125A53045B0C44221352704782
:1017700070B5002400220023058C734E6F3635406F
:101780000584028C8388048B6F4D2C40B51E2C4041
:101790000D882C43751E2A408D892A434D882A4383
:1017A000624DA84208D0654DA84205D0644DA842BC
:1017B00002D0644DA84212D1634D68352A40CD89CC
:1017C0002A43614D6C352A408D882A435E4D903DF9
:1017D0002B405F4D2B400D8A2B434D8A2B4383803A
:1017E00004838D684563028470BD70B500240022B7
:1017F0000023058C544E603635400584028C838866
:10180000048B544D2C40514D2C400D782D062D0C41
:101810002C434D4D50352A408D892D052D0C2A43E2
:101820004D882D052D0C2A43404DA84219D1464D17
:10183000103D2A40CD892D052D0C2A43424D3035CF
:101840002A408D882D052D0C2A43434D2B40434DB6
:101850002B400D8AAD042D0C2B434D8AAD042D0C6D
:101860002B43838004838D688563028470BD70B5CB
:10187000002400220023058C334E903E3540058421
:10188000028C8388848B304D2C402F4D6D352C403D
:101890000D882C432E4D2A400D7B2D062D0C2A43FE
:1018A0008D782D062D0C2A43204DA84217D12B4DA3
:1018B0002A408D7B2D062D0C2A43274D2A400D7979
:1018C0002D062D0C2A43264D2B40264D2B400D8AEC
:1018D0002D052D0C2B434D8A2D052D0C2B4383807C
:1018E00084838D68C563028470BD70B500220023B7
:1018F0000024058C1A4E35400584038C8488828B25
:10190000144D2A40114D2A400D782D062D0C2A43E6
:10191000144D2B400D7B2D072D0C2B438D782D075F
:101920002D0C2B43014DA84224D11DE0002C014079
:101930000004004000100040002000400040014032
:1019400000440140004801408FFF0000FFFC000000
:10195000FFFD0000FF8F0000FFFB0000FFF700000D
:10196000FFEF0000FFDF0000FC4D2C400D8AAD05AD
:101970002D0C2C43848082838D680564038470BDA4
:10198000002101804180818081608181C18101824B
:101990004182704770B50346002000241846183075
:1019A00001258D40ACB21D8CA5431D84002901D0BA
:1019B000082909D14D10281805687026B54305601F
:1019C0000568154305600DE00D1F2D046D0C2818EA
:1019D000056807263603B543056005681606360C0C
:1019E0003543056070BD4163704781637047C163D3
:1019F0007047016470470A460021018BD84B19409B
:101A00000B4613431946018370470A460021018B98
:101A1000D44B194013061B0C1943018370470A4627
:101A20000021818BCE4B19400B461343194681830D
:101A300070470A460021818BCA4B194013061B0CC4
:101A4000194381837047002904D0828801231A43F7
:101A5000828004E08288C24B6F331A4082807047D4
:101A60000A460021018BBE4B683319400B461343D5
:101A70001946018370470A460021018BBA4B194071
:101A800013061B0C1943018370470A460021818B02
:101A9000B34B683319400B46134319468183704793
:101AA0000A460021818BB04B194013061B0C1943C9
:101AB000818370470A460021018BA94B6C33194082
:101AC0000B4613431946018370470A460021018BD8
:101AD000A64B194013061B0C1943018370470A4695
:101AE0000021818B9E4B6C3319400B4613431946E2
:101AF000818370470A460021818B9C4B1940130655
:101B00001B0C1943818370470A460021018B944BBB
:101B1000103B19400B4613431946018370470A4690
:101B20000021018B4904490C13061B0C1943018346
:101B300070470A460021818B894B103B19400B46A8
:101B400013431946818370470A460021818B49045B
:101B5000490C13061B0C1943818370470A46002168
:101B6000018C7F4B6E3319400B4613431946018499
:101B700070470A460021018C794B683319400B46A7
:101B800013431946018470470A460021018C744BA7
:101B90005033194013051B0C1943018470470A4642
:101BA0000021018C6E4B103B194013051B0C19438F
:101BB000018470470A460021018C6D4B19401306C1
:101BC0001B0C1943018470470A460021018C664BA7
:101BD000194013061B0C1943018470470A46002163
:101BE000018C644B194013071B0C19430184704787
:101BF00002895B4B68331A40028102890A430281E1
:101C0000704730B5002301248C40A3B2048C9C4360
:101C10000484048C15468D40ADB22C43048430BD41
:101C200030B5002304248C40A3B2048C9C4304846C
:101C3000048C15468D40ADB22C43048430BD002980
:101C400004D0828804231A43828004E08288444BB3
:101C50006C331A4082807047828B474B1A408283D4
:101C6000828B0B061B0C1A4382837047F8B50C4617
:101C70000021002500260096068C404F3E40068439
:101C8000818B058C2607360C00963D4E314016069A
:101C9000360C31431E07360C31433A4E354001278E
:101CA0003F03009E3E43354381830584F8BD828B0C
:101CB0002B4B64331A408283828B0A4382837047A2
:101CC000F8B50C460021002500260096068C244F0E
:101CD000903F3E400684818B058C2606360C00968C
:101CE0001F4E833E31401E05360C16433143264EAF
:101CF0003540FF270137009E3E43354381830584ED
:101D0000F8BD028B1C4B1A400283028B0B061B0C86
:101D10001A4302837047F8B50C46002100250026BF
:101D20000096068C0E4F60373E400684018B058C72
:101D30002605360C0096124E31401E07360C3143F4
:101D40001606360C3143064E303E35401027009EB5
:101D50003E43354301830584F8BD0000FFBF00000A
:101D60008FFF0000FF8F0000FFF70000FFFB000067
:101D7000FFFD0000FFDF0000FFF30000FFEF0000A9
:101D8000FF0C0000FF5F0000FFF50000028BD84B46
:101D90001A400283028B0A4302837047F0B50C4657
:101DA00000210025068CD24F0B373E400684018B64
:101DB000058CCF4EE73E31401E05360C16433143AD
:101DC000CB4EB61C3540012626433543018305849E
:101DD000F0BD70B505460C46208800280AD123893D
:101DE000A28861882846FFF7D9FFE1882846FFF7D7
:101DF000CDFF25E0208804280AD12389A2886188A4
:101E00002846FFF788FFE1882846FFF77AFF17E0AA
:101E1000208808280AD12389A28861882846FFF7EC
:101E20004FFFE1882846FFF742FF09E02389A28897
:101E300061882846FFF71AFFE1882846FFF70CFF64
:101E400070BD002101804180012181800021C1807D
:101E500001817047F8B505460C46002601276088C9
:101E6000002801D1022600E00026A088012801D127
:101E7000022700E001272088002814D12389A288A6
:101E800061882846FFF78AFFE1882846FFF77EFF32
:101E900023893A4631462846FFF73DFFE188284628
:101EA000FFF72FFF13E02389A28861882846FFF7F8
:101EB00032FFE1882846FFF724FF23893A4631465E
:101EC0002846FFF76BFFE1882846FFF75FFFF8BD64
:101ED0000146486B70470146886B70470146C86BE6
:101EE00070470146086C7047002A03D083890B4372
:101EF000838102E083898B438381704781827047AD
:101F000002460020138A0B40002B01D0012000E084
:101F100000207047CA430282704730B50246002055
:101F200000230024158A0D402B4695890D402C4630
:101F3000002B03D0002C01D0012000E0002030BD98
:101F4000CA430282704710B50B46134348242352FC
:101F500010BD002A03D083890B43838102E083896B
:101F60008B4383817047002904D0828808231A4359
:101F7000828004E082885E4B1B1D1A40828070477D
:101F800001895B4A521D1140018170470A460021B8
:101F90000189574B643B19400B4613431946018195
:101FA000704730B504460D4629462046FFF7EEFF40
:101FB000208907210843208130BDF8B504460D462D
:101FC00016461F46602D06D13B460122314620466B
:101FD000FFF7A1FE05E03B46012231462046FFF710
:101FE000DDFE29462046FFF7D1FF2089072108435F
:101FF0002081F8BD30B50C4600210189C9B21D060B
:102000002D0C154325432943018130BDFFB50546FD
:102010000E46174600243A4631462846039BFFF7F2
:10202000E9FF2C893248401D044007200443304812
:1020300064380440702004432C81FFBDF0B5044691
:102040000D4616461F463B46324629462046FFF7B8
:10205000D1FF20890121890308432081F0BD8288B6
:10206000234B643B1A40828082880A4382807047F7
:1020700002891F4B5B1D1A40028102890A430281BB
:10208000704702891A4B743B1A40028102890A4345
:1020900002817047F0B50C46002100250026018919
:1020A000058B068C124F7F1D39400F46274339465A
:1020B000104F3D40FF2702373D430D4F9E3F3E40AE
:1020C0001F053F0C17433E43018105830684F0BD85
:1020D000002904D0828880231A43828004E0828809
:1020E000034B743B1A408280704750221152704754
:1020F000F3FF0000FCFC000010B501210807FEF70B
:10210000AAFE002101200007FEF7A5FE10BD002851
:1021100007D046490968FF2201321143434A116042
:1021200006E042490968FF22013291433F4A1160AB
:102130007047014600203D4A1068E02302469A435A
:10214000104602460A431046384A1060704700287D
:1021500006D03649096810221143344A116005E05F
:102160003249096810229143304A116070470029B2
:1021700005D02E4A526802432C4B5A6004E02B4A89
:1021800052688243294B5A607047294909690422E1
:102190009143274A1161012801D130BF00E020BFDF
:1021A000704710B502460020204B18688008800058
:1021B0000346134318461D4B18601D4B1B6904242E
:1021C00023431B4C2361012901D130BF00E020BF14
:1021D000174B1B690424A343154C236110BD1348FE
:1021E000006804210843114908600846006802217C
:1021F00008430E4908600E480069042108430C4951
:10220000086130BF704701460020084A52680A4002
:10221000002A01D0012000E000207047034909682E
:1022200082001143014A11607047000000700040B5
:1022300000ED00E001F023FD00F09EFF01F05BF8EF
:1022400000F060FD00F0D1FF01F09CF801F0A9F86A
:1022500001F0CBF800F052FA00F0A6FB00F0C2FA51
:1022600001F01AF900F075FB01F0C5F801F0DDF896
:1022700007A002F05BF901F04EF808E000F00BF95E
:1022800000F04BFE01F0B5F9322000F0C9FBF5E794
:102290000D0A205B494E464F5D20207761697469C5
:1022A0006E6720666F7220627574746F6E2069733A
:1022B0002070726573736564202E284D41494E2E3F
:1022C000632D3532206C696E65292020200D0A00AF
:1022D00000B595B0B248FDF7F7FE01214804FEF7BE
:1022E00074FD01214802FEF77EFD01210846FEF73C
:1022F0006CFD0F2002900321684601730021C17319
:1023000002A90920C006FEF7D1F9A648FEF750F849
:10231000A34840300490A448059000200690FF2078
:1023200091300790002008908020099040000A908A
:1023300080000B9020200C9000020D9000200E9049
:1023400004A99848FEF780F80220FEF7DFF8012282
:1023500002219448FEF7B4F8092168460171012171
:1023600081710021417101A8FEF756FA01218D48C3
:10237000FEF794F802218A48FDF7D4FF012188482E
:10238000FDF7C4FF0FA8FDF7C1FE00200F9001214B
:1023900010A80170002011901390042014900FA930
:1023A0007F48FDF79FFE00207D49886207220F21AC
:1023B0007B48FDF749FF7A48FDF77CFF022178480A
:1023C000FDF7B0FF01217648FDF7A0FF0121744819
:1023D000FDF7A4FE00BF75497148FDF7B5FF002861
:1023E000F9D06F48FDF789FF01207149087015B0D9
:1023F00000BD10B5FFF76CFF10BD10B50021684897
:10240000FDF784FF00216648FDF788FE002068493B
:1024100008706849087010BD70B50026002412E0ED
:1024200000250CE0E800604940186100415AC820CE
:102430006043614A80186A008152681CC5B2642DED
:10244000F0DB601CC4B2042CEADB002420E0002096
:10245000A1005A4A505000250DE0C820604356495B
:1024600040186900405AA100544A51584018A10030
:102470005050681CC5B2642DEFDBA1004F4A505884
:10248000642101F093FCA1004C4A5050601CC4B27E
:10249000042CDCDB70BDF8B54948007801286FD109
:1024A000FFF7BAFF4549886801F096FE0646454A9F
:1024B000454B01F095FD044601F09CFE43498860C0
:1024C0003E49486801F088FE06463E4A3E4B01F010
:1024D00087FD044601F08EFE3C49C8603749C86854
:1024E00001F07AFE0446374A374B01F079FD064683
:1024F00001F080FE354948603548007800280ED14B
:10250000084680680A2805D232480068401C3149D4
:10251000086004E030480068401C2F4908602B48E0
:1025200080682E49884209D92448826827488168F2
:102530002B4801F0FBFF01202A4908702348C0689E
:102540002949884209D21D4842682048C168274865
:1025500001F0ECFF0120264908701C48C0681F49A3
:10256000FA39884209D9154842681848C168214893
:1025700001F0DCFF01201E4908700020104908709E
:10258000F8BD10B50220FDF7B5FF002804D00120EA
:102590000B490870074908700220FDF7B7FF10BD0E
:1025A00000240140080002402C040020010000012A
:1025B000190000201A000020EC0000200C0400206C
:1025C00018000020BF1072DEFFC7E93F1C04002086
:1025D000160000202000002024000020540B0000E2
:1025E0009047000811000020DC0500003C4700086F
:1025F00012000020E447000801B535490098086042
:1026000000BF334800680028FBD108BD304800688F
:10261000002804D02E480068401E2D4908607047ED
:1026200010B57D21C9002B48006801F0BFFB0446AE
:10263000601E2949884201D901200CE0601E27490B
:1026400048610321081F00F00BF80020234988612E
:10265000072008610020002801D000BFFEE710BD60
:1026600010B5002819DA1E4A03071B0F083B9B0808
:102670009B00D2588307DC0EFF23A3409A438B07AD
:102680001B0E8407E40EA3401A43154B0407240FC6
:10269000083CA408A4001A5118E0124A03231B02A4
:1026A000D21883089B00D2588307DC0EFF23A34077
:1026B0009A438B071B0E8407E40EA3401A43094B71
:1026C000032424021B198408A4001A5110BD000021
:1026D0002C0000206C000020FFFFFF0000E000E065
:1026E0001CED00E000E100E0704700BFFEE770472E
:1026F000704710B5FFF78AFF10BD000000B589B024
:1027000001214804FEF761FB01218803FEF76BFB02
:1027100001220921C806FEF752F801220A210920E8
:10272000C006FEF74CF8032040020790022108A8DB
:102730000170002181700121C1700321417007A93E
:102740000920C006FDF7B2FFE12040020190002001
:1027500002900390049006900C20059001A9204857
:10276000FEF746FC01211E48FEF7DBFC09B000BD68
:1027700000BF1B49C969802211400029F9D01849BE
:102780002031088170470CE000BF154AD2698023D0
:102790001A40002AF9D00278114B20331A81401CCC
:1027A000491E0029F0D1704700BF0D48C0692021A3
:1027B00008400028F9D00A4820308088C0B270470D
:1027C00070B504460D46E1B20548FEF761FD00BF55
:1027D00080210348FEF76EFE0028F9D0204670BD28
:1027E0000038014010B500F04BF910BD70B504463B
:1027F000002600F09AF92546E117090E4919091239
:102800004900A031C8B200F0F7F900F0B2F9E117C1
:10281000090E491909120902611AC8B200F0ECF94F
:1028200000F0A7F900F081F9A12000F0E5F900F02F
:10283000A0F9002000F005FA064600F088F93046BD
:1028400070BD70B504460E4600F06FF92546E117DD
:10285000090E491909124900A031C8B200F0CCF99B
:1028600000F087F9E117090E491909120902611AE6
:10287000C8B200F0C1F900F07CF9304600F0BCF9B4
:1028800000F077F900F063F90A2000F0C9F870BD94
:10289000F8B505460E461746002409E0E200334627
:1028A000D340D9B22A1990B2FFF7CBFF601CC4B253
:1028B000BC42F3DBF8BDF8B507460C460026002500
:1028C00009E036023919491B491E88B2FFF78EFF0D
:1028D0008619681CC5B2A542F3DB3046F8BD10B5B9
:1028E000FF20FFF783FF0446552C01D1002010BDC7
:1028F0005521FF20FFF7A5FFFF20FFF777FF0446D4
:10290000552C01D10020F2E70120F0E770B5064612
:102910000C46154608E03046721C96B2FFF766FF7B
:102920002070641C681E85B2002DF4D170BD70B596
:1029300005460C46164606E021782846FFF781FF3B
:10294000681C85B2641C3046711E8EB20028F3D11B
:1029500070BD10B50024FFF7C2FF012821D004216B
:102960000020FFF7A8FF0446042211460020FFF7CD
:102970008FFF04210020FFF79EFF0446E00FC007F1
:10298000002808D0042211460020FFF781FF042010
:102990000449086005E0002C03D0FF2C01D8014851
:1029A000046010BD3000002010B50420C043FDF7C6
:1029B00076FF2E492E48006801F0F8F9400040B239
:1029C0002C490870002008567D21C900484300B2F8
:1029D0002949088010BD0146264A0023D3560A46DD
:1029E0005A43264B5A6100229A611A461269012302
:1029F0001A43224B1A6100BF204A1069C207D20F46
:102A0000002A04D0012212040240002AF4D01B4AFA
:102A1000126952085200194B1A6100229A617047DC
:102A20000146154A0023D35E0A465A43134B5A61A6
:102A300000229A611A46126901231A430F4B1A6148
:102A400000BF0E4A1069C207D20F002A04D001222B
:102A500012040240002AF4D0084A126952085200B7
:102A6000064B1A6100229A617047000000127A003A
:102A70006C000020340000203600002000E000E060
:102A800010B501218804FEF7A0F9C0209B49086019
:102A90000120087100208871032048719848FDF7D3
:102AA00005FEC0219648FDF77EFE10BD10B5934887
:102AB000FDF744FE80209149086001200871002044
:102AC0008871032048718E48FDF7F0FD10BD10B5E8
:102AD0008A48FDF733FE802088490860002008718D
:102AE000C871032048718648FDF7E0FD10BD10B5A0
:102AF00080218348FDF73DFE10BD10B58021804840
:102B0000FDF751FE10BD10B580217D48FDF74DFE4B
:102B100010BD10B540217A48FDF745FE10BD10B537
:102B200040217748FDF741FE10BD10B5FFF7BEFF0D
:102B3000FFF7E3FFFFF7EDFF0420FFF74CFFFFF780
:102B4000E2FF0420FFF747FFFFF7E9FF10BD10B5D4
:102B5000FFF7ACFFFFF7E3FFFFF7D5FF0420FFF718
:102B60003AFFFFF7D6FFFFF7C8FF0420FFF733FF58
:102B700010BD10B50024FFF7AAFFFFF7BEFF01202C
:102B8000FFF729FFFFF7C5FF0120FFF724FF07E04C
:102B9000601CC4B2FA2C03DDFFF7D9FF012010BD81
:102BA000FFF7A5FF0028F3D1FFF7B9FF0020F6E7F4
:102BB00010B5FFF7B4FFFFF779FFFFF7A4FF02207E
:102BC000FFF709FFFFF7A5FF0220FFF704FFFFF75C
:102BD000A6FF10BD10B5FFF7A2FFFFF767FFFFF7D5
:102BE0008CFF0220FFF7F7FEFFF793FF0220FFF7AD
:102BF000F2FEFFF794FF10BD70B50446FFF756FFD5
:102C0000FFF78DFF002519E080202040002802D02A
:102C1000FFF773FF01E0FFF776FF6006040E022066
:102C2000FFF7D9FEFFF775FF0220FFF7D4FEFFF78D
:102C300076FF0220FFF7CFFE681CC5B2082DE3DB4C
:102C400070BD70B505460024FFF741FF002613E074
:102C5000FFF765FF0220FFF7BEFEFFF75AFF600691
:102C6000040EFFF744FF002801D0601CC4B201200D
:102C7000FFF7B1FE701CC6B2082EE9DB002D02D1B1
:102C8000FFF7A8FF01E0FFF793FF204670BD10B5E6
:102C90000024FFF74AFF8020FFF7AEFFFFF769FF30
:102CA000F520FFF7A9FFFFF764FFFFF73EFFA12024
:102CB000FFF7A2FFFFF75DFF0020FFF7C2FF04460A
:102CC000FFF745FF204610BD10B50446FFF72DFF66
:102CD0008020FFF791FFFFF74CFFF520FFF78CFFF7
:102CE000FFF747FF2046FFF787FFFFF742FFFFF799
:102CF0002EFF0A20FFF794FE10BD000038000020D0
:102D0000000400481CB501218804FEF75EF8182075
:102D10000090002168460171032141710121C171B8
:102D20006946F848FDF7C2FC1CBD00E0401E0028C3
:102D3000FCD1704770B504460D4629462046FDF784
:102D400018FD002813D1F048FFF7EFFF2946204671
:102D5000FDF70FFD002808D100BF29462046FDF7EA
:102D600008FD0028F9D0002070BD0120FCE70120FB
:102D7000FAE770B505460E46002431462846FDF7B1
:102D8000F8FC00281DD1E048FFF7CFFF3146284668
:102D9000FDF7EFFC002812D108E0DC48844201D2A4
:102DA000641C03E00120DA49087005E0314628463A
:102DB000FDF7DFFC0028F0D000BF002070BD01202F
:102DC000FCE70120FAE710B50020D2490870D0498D
:102DD0000870D1490870D1490870D1490870D149AB
:102DE0000870D1490870D1490870D1490870FF2096
:102DF000D0490870FE20D049087000F07CFA00F03D
:102E000072FA00F0F2FAFFF7F8FA00F039FB00F07E
:102E100082FA10BD10B500240020C8490870C849C6
:102E20000880C8490870C8490870BB490870BB4988
:102E30000870BB490870BB490870BB490870BB49A2
:102E40000870BB49087000F05EFAFFF7D2FA00BFC5
:102E50000AE000BFBC4800780028FBD0FFF71BFB4E
:102E60000020B9490870641C072CF2DBAD480078DB
:102E7000012802D100F03FFA4EE03220FFF7D0FDEA
:102E80000020B2490860B249086000240AE000BF8F
:102E9000AD4800780028FBD0FFF7FDFA0020AA49D2
:102EA0000870641C072CF2DBA9480068A749096870
:102EB000884203DB00209E49087002E001209C4903
:102EC0000870A3480268A1480168A24801F02EFBDF
:102ED00000F085FA9648007800280DD110210920CD
:102EE000C00600F0E7F980210920C00600F0EEF9E5
:102EF00001208F4908700AE00121C9020920C0069B
:102F000000F0E4F940210920C00600F0D3F90020C8
:102F10008E4908608E49086010BD10B58148007860
:102F2000012813D08148007801280FD07A48007812
:102F300001280BD079480078012807D0784800781C
:102F4000012803D078480078012816D17448027807
:102F500071480178804801F0E9FA704802787348B6
:102F600001787E4801F0E2FA6F4802786D480178F6
:102F70007B4801F0DBFAFFF726FF10216148FFF7DD
:102F8000F8FE00287BD162480078012829D1002072
:102F90005F4908705F490978481CC10F091849103A
:102FA0004900411A5B4A11701046007800280BD185
:102FB00000F099F900BF10215248FDF7DAFB002814
:102FC000F9D0FFF700FF5AE0FFF724FF0020654922
:102FD000087000BF10214B48FDF7CBFB0028F9D04B
:102FE0004DE060480078012802D1FFF7ECFE46E092
:102FF0005D480078002842D14648007801283ED13B
:1030000050480078002811D14E480078401C4D49A6
:10301000087020210920C00600F04CF95348406890
:103020005349086001205349087028E0454800785A
:10303000012811D143480078401C424908704021C2
:103040000920C00600F036F9484880684849086001
:1030500001204849087012E03A48007802280ED151
:1030600000203849087010210920C00600F022F91C
:103070003E4800683E49086001203E49087008212A
:103080002048FFF757FE00283AD12248007801284F
:1030900036D135480078002832D100F0A6F900205A
:1030A000274908802548007800280BD1234800785C
:1030B000401C22490870FF2101310920C00600F0A0
:1030C00005F91BE01D48007801280BD11B4800784A
:1030D000401C1A4908700121C9020920C00600F0ED
:1030E000F5F80BE015480078022807D100201349B5
:1030F000087080210920C00600F0E8F800F06FF9A0
:1031000010BD0000000400481027000080841E004D
:103110004000002041000020550000201000002049
:10312000570000201100002012000020560000204F
:10313000160000201B0000201C000020540000206E
:1031400052000020420000201A0000202000002031
:10315000240000203848000858490008A04800080A
:10316000FC4800084400002013000020D007002085
:103170005C000020430000201CB501214804FDF73D
:1031800024FE7D4800900121684601710021817173
:103190000321417169460920C006FDF787FA9F2186
:1031A00009010920C006FDF7FEFA0121C903092023
:1031B000C006FDF7F8FA01218804FDF706FE03209A
:1031C0000090012168460171002181710321417144
:1031D00069466A48FDF76AFA01216848FDF7E3FA93
:1031E00002216648FDF7E1FA1CBD00B585B001215A
:1031F0000846FDF7F8FD04210120FDF7A1FE01219D
:103200008804FDF7E2FD1020039003216846417415
:10321000002101740121C17403A95848FDF746FA41
:1032200010200190012168468172002101720C2159
:10323000417201A8FDF77EF907216846017001215E
:10324000817000214170FDF7E7FA05B000BD10B5AF
:103250001020FDF7DFF910BD10B501214748FDF73B
:10326000A4FA02214548FDF79EFA10BD10B50121D0
:103270004248FDF79AFA02214048FDF796FA10BD40
:1032800010B501213D48FDF790FA10BD10B50121A0
:103290003A48FDF788FA10BD10B50121490209200E
:1032A000C006FDF782FA012189020920C006FDF758
:1032B0007CFA10BD70B504460D4670212046FDF71E
:1032C00072FA29462046FDF770FA70BD70B50446C3
:1032D0000D461321C9012046FDF765FA294620460F
:1032E000FDF763FA70BD10B59F2109010920C006E2
:1032F000FDF759FA10BD10B50121C9030920C00618
:10330000FDF753FA10BD10B50121C9030920C0060D
:10331000FDF749FA10BD10B50120194908700121C7
:103320000007FDF76EFD01210846FEF73AFF00F0A9
:10333000A6FC10BD10B5FF2101310920C006FDF724
:1033400025FA0121081AC4B2224609020920C00642
:10335000FDF72DFA10BD10B5012149020920C00664
:10336000FDF714FA0121081AC4B2224649020920C5
:10337000C006FDF71CFA10BDF089000000040048EB
:103380004400002008B50121C802FDF72CFD0D21E5
:10339000684601700021417001218170FDF73CFAFF
:1033A00008BD10B5F648F7494860F7480880002086
:1033B00008814880F548FEF71FF90121F348FEF720
:1033C000A9FD0121F148FEF77EF901221146EF48DF
:1033D000FEF78AFD0021ED48FEF793F910BD10B508
:1033E0000121EA48FEF78DF910BD10B50021E7482C
:1033F000FEF787F910BD1CB501218804FDF7E5FC37
:1034000002200090022168460171032141710021D0
:1034100081710221C1716946DD48FDF747F901223A
:103420001146DB48FDF7CBF91CBD10B5D949DA4888
:10343000006800F0BBFC401ED84908800121022032
:10344000FDF7DFFC0020CF4908804880D348008882
:103450004860002008818872D148FEF7CDF86020CE
:10346000D04908800120488004208880022088817B
:103470000020C881FF20013008820020488210BD52
:1034800010B50021C648FEF73CF90021C448FEF7FC
:103490005EF9FFF7FBFE10BD10B5FFF7F1FF10BDA1
:1034A00010B50446BF4884600146BD48FEF71DFACA
:1034B0000121BB48FEF725F90121B948FEF747F97C
:1034C000FFF7DEFE10BD70B504460025B149B248D5
:1034D000006800F06BFC401EB04908807D21C900E7
:1034E000091BAE4A1288521E514308467D21C9006D
:1034F00000F05CFC85B2284670BDF0B587B00C4684
:10350000174600200690002F03D1A7480078012815
:103510006DD1A648007828282DDDA548844204DD19
:103520007D20C000A349088052E07D21C90061438D
:1035300008467D21C90000F04FFC019000F038FEE4
:10354000054600229C4B00F03DFD9C4A9C4B03919C
:10355000029000F0ADFD0591049000F04BFE9549FE
:103560000880084600887D21C900884230DD084671
:10357000904908802CE08E48844204DD7D20C00004
:103580008C49088024E07D21C900614308467D21E3
:10359000C90000F021FC019000F00AFE054600225F
:1035A000854B00F00FFD854A854B0391029000F09A
:1035B0007FFD0591049000F01DFE7E4908800846BD
:1035C00000887D21C900884202DD084679490880CB
:1035D00078480088FFF777FF06900698FFF760FFAE
:1035E000724800787749087000206F49087007B06A
:1035F000F0BDF0B585B00020049073480078012834
:103600007ED172480088401C7049088000206E49B5
:1036100008706F48007801282AD16E480078012888
:1036200017D1FFF72DFF6C490878C10F0918491011
:103630004900411A0BD10121C9020920C006FFF738
:1036400045FE40210920C006FFF734FE01E0FFF7E8
:103650004AFE61480078401C5F49087008460078BF
:10366000782805D101205D49087000205A4908706A
:10367000564800884B21C900884208D15848007834
:10368000002804D1514908800120564908704F484C
:103690000088E1218900884209D151480078012839
:1036A00005D100204949088001204E49087047484B
:1036B00000884B210901884209D149480078022835
:1036C00005D10020414908800120464908703F4843
:1036D00000884B210901884202DD00203B49088017
:1036E0004149486800F078FD044600223F4B00F055
:1036F000B3FD04D33C4840683D4988420CD900E002
:1037000076E13C48C268384841683B4800F00EFF0B
:1037100001203A49087047E13349886800F05CFDB0
:1037200004460022364B00F097FD6DD82E48806885
:103730000A2869D92C4A916852680A235A431046CC
:1037400000F034FB19490870084600782D2804DA87
:1037500008460078C01C087004E014480078401D3A
:1037600012490870114800780A284EDA02202549CB
:10377000087000201349087001201549087013E1F2
:103780000F270000B0070020BF120000002C0140EE
:1037900000040048A24400006C0000204800002003
:1037A00000040040BC070020430000201B00002054
:1037B000606D0000500000208032B2407B14AE47A4
:1037C000E14A37401C000020680000205200002021
:1037D00013000020410000201400002056000020AB
:1037E00054000020550000201C04002000C072403E
:1037F000B80B00000C040020AC4900085700002062
:1038000000A8A64058000020CBE09D4801789DA06C
:1038100000F08CFEA848007801281AD10020A649A3
:103820000870A6490870A649087010210920C00632
:10383000FFF740FDA3480068A34908600120A349A1
:1038400008700020A249087080210920C006FFF7F7
:103850003DFD8B4800789F490978884255D08848BB
:1038600000782C2826DD86480078962822DA012068
:10387000994908709948934908609948486099485F
:1038800088608F480078002803D1084600688E4978
:1038900008608B480078012803D18A4840688A492B
:1038A00008608748007802282FD1864880688649BA
:1038B00008602AE0724800780F2826DD70480078FA
:1038C000282822DA002084490870412000067D491A
:1038D00008608548486085488860794800780028F5
:1038E00003D10846006878490860754800780128C7
:1038F00003D1744840687449086071480078022810
:1039000003D170488068704908605D4800780F28CE
:103910004ADD5B480078962846DA6B48006800F07C
:1039200087FC04460022724B00F0AAFC3CD86F4989
:103930006548006800F0B8FC36D85148007800F0BF
:103940002FFC009060480168009800F059FA01903F
:1039500000F06EFC0391029000F0CCFE04460022C1
:10396000644B00F03DFB064600F044FC62490860F1
:103970000846016861A000F0D9FD6F4840680A213F
:1039800048436E490860534B1B783D4C24781A1B02
:10399000594B1B8899B2694B1B8898B2FFF7ADFD54
:1039A00002E001204449087065480088002856DD7F
:1039B0003C216348008800F00FFA00294FD1FEF740
:1039C0008EFF01284BD05F49098888B20421FEF799
:1039D00072FF5D49086008460068C00FC0070028F4
:1039E00007D05849098888B204220121FEF750FF08
:1039F00035E056495448006800F0D8F9002921D133
:103A000050480068001D4F49086008460068FF21C3
:103A10000131884202D100204A4908600422494805
:103A200001680020FEF734FF47480068401C464903
:103A300008604449098888B2042243490968FEF7AE
:103A400027FF0CE040480068401C3F4908603D49A2
:103A5000098888B204223C490968FEF719FF05B0BD
:103A6000F0BD10B501213A48FEF757FA002806D0FC
:103A700001213748FEF764FA01203649087010BD6D
:103A80001B0000200D0A205B494E464F5D2020524E
:103A90005F76616C75655F4E6577203D2564202EED
:103AA0002874696D652E632D343233206C696E6520
:103AB000292020200D0A00001300002014000020FF
:103AC00042000020D00700205C00002043000020BE
:103AD000540000201C00002058000020000020405E
:103AE000333373400000A0400000384100007041B3
:103AF0000000044000408F40600000200D0A205B61
:103B0000494E464F5D2020564F55545F636F756E8A
:103B10007465725F76616C7565203D2564202E2882
:103B200074696D652E632D343233206C696E65299E
:103B30002020200D0A0000001C040020640000204A
:103B400052000020300000204C00002060EA0000FD
:103B5000002C0140680000200C4880F308880C48C5
:103B60000168090E0B4A914205D10B480B490160CF
:103B70000B480C4901600C4880470C480047FEE7A1
:103B8000FEE7FEE7FEE7FEE7FEE70000E00B0020B1
:103B9000040000001F000000181002400100000097
:103BA00000000140000000007F3C0008B500000854
:103BB0000CB50020019000907348006801210904B1
:103BC00008437149086000BF6F480068012149043B
:103BD000084000900198401C01900098002804D1F2
:103BE0000521090301988842EED167480068012148
:103BF00049040840002802D00120009001E0002084
:103C000000900098012839D11120604908605E4871
:103C100040685D494860084640684860084640681A
:103C20007F21C903884358494860084640680521F8
:103C30000904084354494860084600680121090600
:103C400008435149086000BF4F48006801214906F8
:103C500008400028F8D04C484068800880004A4955
:103C6000486008464068022108434749486000BF51
:103C7000454840680C2108400828F9D10CBD10B512
:103C800041480068012108433F49086008464068F0
:103C90003F4908403C494860084600683D490840A3
:103CA000394908600846006801218904884336497B
:103CB0000860084640683F2109048843324948604B
:103CC0000846C06A00090001C8620846006BFF216F
:103CD000543188432C4908630846406B4008400033
:103CE000486300208860FFF763FF10BDF8B500252A
:103CF000002400260027244840680C21084005467F
:103D0000002D04D0042D06D0082D2AD107E022482A
:103D10002249086029E022482049086025E01A4825
:103D200040680F2189040840044617484068032171
:103D3000C90308400646A00C841C002E04D1194873
:103D40006043164908600BE00F48C06A0007000F87
:103D5000471C3946124800F029F860430F490860B3
:103D600003E00D480D49086000BF00BF06484068E9
:103D7000F021084000090C490D5C08480068E84043
:103D800006490860F8BD0000001002400020024013
:103D90000CB8FF08FFFFF6FE00127A006C0000204E
:103DA0000024F40000093D007000002030B50B46EF
:103DB000014600202022012409E00D46D5409D4205
:103DC00005D31D469540491B25469540401915468B
:103DD000521E002DF1DC30BD70B5002425460028B0
:103DE00001DA01244042002901DA01254942FFF7A6
:103DF000DDFFAC4200D04042002C00D0494270BDF3
:103E0000024670B54A40D30FDB0740002DD04A0070
:103E10002AD0010E140E000212020919400A520A99
:103E20008418E50104465443000A120A2E04504344
:103E3000A4194219200CC543AA18120C0125AD0380
:103E4000521C521912047F39240400D0521C104312
:103E500001D44000491EC2B20C06C0092018401C03
:103E60004008802A02D003E0002070BD40084000D6
:103E7000002900DA0020184370BD0000F0B50746A5
:103E80000846584087B0C00F049048000E465900BD
:103E900040084908BC1A884105D2384631461E46BA
:103EA00017460B4602465800400810434CD0300DD0
:103EB000039040055900400D490D0590401A0290AD
:103EC000402872DA18030121000B0905084301900C
:103ED00004980092002805D00199524200208841A0
:103EE00000920190029840210A1A0199009800F06E
:103EF000E5F905460C466B4607CB00F000FAC01901
:103F00007141039A0E0D0023D71756401A467A4086
:103F1000164344D0049A002A2DD0029A012A039A0B
:103F200015DC1205C01A914101263605001C7141AD
:103F3000D20F059ED2070093019202962A4623468D
:103F400000F03EFA07B0F0BD38463146FAE71605F4
:103F5000224A0F46B218C01AB74101210905001CB8
:103F60004F4100187F41114618187941E20F104364
:103F70006D19644113E0E2076D0815436408C20738
:103F80001443039A01261205C01A91413605001CFC
:103F90007141CE07400830434908C01851412A46B4
:103FA000234600F000FACDE7FFE704980122400025
:103FB000C117121A00238B4104983146C417381ACE
:103FC000A141EEE730B40124E407634030BC55E77B
:103FD00030B40124E407614030BC4FE70000E0FF4B
:103FE000F0B51FB488B00B9909980024484009998E
:103FF000C00F490049080991C0070B99009049007A
:1040000049080B9109990898A64608431CD00B99BA
:104010000A98084318D0099801244000420D48002E
:10402000410D099824050003000B204309900B98CB
:104030000003000B20430B9050181C49401800222D
:1040400001901446104605E0002001460DB0F0BD79
:10405000032801DA034600E003239C46C11A0AAE96
:104060000AE05F0008ADED5B4F00F75B7D43002782
:10407000AA187C41491C5B1E6145F2DD410004AB7E
:104080005A522104120C0A43240C401C0828DFDB7E
:10409000019802900099704601910090059B049A46
:1040A0000799069800F08CF9D0E700000DFCFFFF9F
:1040B000F0B50C465C4085B0E40FE40703944C0077
:1040C0000026640859009446490802460296224395
:1040D00021D062460A431ED06200570D4A000E03EB
:1040E0002303550D012402462C492405781B1B0B84
:1040F000360B401823432643614600901C46501A55
:10410000B44103D30098401C009002E0921800983C
:104110005B41002803DA0020014605B0F0BD002015
:10412000012109050746864611E064461D46141B19
:10413000B54106D36546521BB341744607430C4351
:10414000A646CD0740084908284392185B4105461A
:104150000D43EAD11046184313D06046194650402B
:104160007140084306D06046101AB34106D20122BE
:10417000002306E000220123DB0702E00122D243F4
:104180005310009874460105381C6141029C039D40
:104190000019694100F007F9BFE70000FD030000C6
:1041A00010B500229623114600F0C4F810BD00009F
:1041B0000EB5C217C10F5040CA0740180021054B69
:1041C0000293019200910A460B4600F0F9F803B001
:1041D00000BD0000330400000EB505490291002126
:1041E00000910A460B46019100F0EAF803B000BDC9
:1041F000330400004A0009030123090B1B0519437E
:10420000094B10B5520D9A4201DA002010BD064B41
:1042100034339A4203DC9A1A00F060F810BD034967
:104220005118884010BD0000FF030000CDFBFFFFC8
:10423000C20FD207400040080BD0C10D0723DB019D
:10424000C91840020905400A1143C208400711433A
:10425000704700200146704710B5002904DB012497
:10426000E40740428C412146002B04DB1C4601231D
:10427000DB075242A3418B4200D1824210BD0000B5
:1042800010B5002904DB0124E40740428C4121469B
:10429000002B04DB1C460123DB075242A341994259
:1042A00000D1904210BD00000122D207002800DB9F
:1042B000101A002900DB511A8142704710B5202ADC
:1042C00004DB0146203A9140002010BD914020239C
:1042D0009C1A0346E3401943904010BD10B5202AB4
:1042E00004DB0846203AD040002110BD0B46D340E5
:1042F000D0402024A21A91400843194610BD10B5A1
:10430000202A06DBCB170846203A1041C1170B4381
:1043100006E00B461341D0402024A21A91400843E6
:10432000194610BD002904DA401C490001D140089B
:104330004000704770B40024050C05D1102400041F
:1043400002D1002921D01124050E01D10002083428
:10435000050F01D10001241D850F01D18000A41C8F
:10436000002801DB4000641C002908D020252E1BFA
:104370000D46F540A14000D0012129430843010624
:104380001B1B000ADB1D02D5002070BC7047DB053B
:10439000181880180029F8DA401C4900F5D170BCC3
:1043A00040084000704710B5002B08DA0024401C7C
:1043B000614192185B411A4301D14008400010BD91
:1043C000F0B51FB482B005460C0003D0084600F0DB
:1043D000BDF802E000F0BAF8203002460090214615
:1043E0002846FFF76BFF049B059A04460F461843C7
:1043F0001143084314D0184610431BD000984021A5
:104400000A1A18460599FFF769FF05460E46009AF5
:1044100005990498FFF752FF084305D0012004E0F6
:104420002046394607B0F0BD0020C11705430E43B2
:104430002C43374300990E986305401A7905E40A26
:1044400000220C43FD0A0A3002D500200146E9E7AC
:104450000105101969410C9C0D9D00196941FFF778
:10446000A2FFDFE7FEB500231A461B1A8A4103DBD1
:104470000020014603B0F0BD4A000D0301212D0BC1
:104480000905520D0D43D10702D100186D41521E8E
:104490005110FF31FF310131002704463E463846B6
:1044A000009701910246012100200905FFF716FF40
:1044B000C3197141F818324684468E464A41614616
:1044C0002846611A904104D36046241A95417646E5
:1044D0001F46241900986D41401C00903428E1DDEE
:1044E000F91930467041091BA84103D20022D2437A
:1044F000134601E00022134601980105381C714162
:10450000FFF751FFB6E70000064C0125064E05E017
:10451000E36807CC2B430C3C98471034B442F7D3E4
:10452000FBF7CCFD104A0008304A00080FB410B564
:1045300003A9044B044A029800F034F810BC08BCEC
:1045400004B01847C1270008800000202021020C79
:1045500001D010211046020A01D010460839020984
:1045600001D01046091F820801D01046891E42085A
:1045700001D0881E7047081A704702E008C8121F51
:1045800008C1002AFAD170477047002001E001C13C
:10459000121F002AFBD170470149086070470000D4
:1045A00084000020FFB58DB00446002506E02528D4
:1045B0000AD0109A0F999047641C6D1C207800282F
:1045C000F5D1284611B0F0BD00270121484A0097D7
:1045D00000E00743641C23780846203B98401042C3
:1045E000F7D120782E2817D1042007436078641C67
:1045F0002A280CD10E98641C02C800910E900BE082
:1046000000990A22514330394018641C00902078E8
:10461000014630390929F3D920780028D1D06428FF
:1046200008D0692806D075281ED0109A0F99904797
:104630006D1C5BE00A200E99019001C90E910028C3
:1046400002DA40422D2102E0390504D52B216A46C9
:104650001172012103E0F90704D02021F7E70BAE26
:104660000B910DE00021FAE70A200E99019001C993
:104670000E91F7E70199FFF799FB3031761E317003
:104680000028F7D103A8801B20300190780701D5BE
:10469000009801E0012000900199884201DD401A54
:1046A00000E000200027009006E002A8109AC05DFC
:1046B0000F9990476D1C7F1C0B988742F5DB04E037
:1046C000109A30200F9990476D1C0099481E009059
:1046D0000029F5DC05E03078109A761C0F99904798
:1046E0006D1C0199481E01900029F4DC641C65E7EB
:1046F00009280100F8B506460C46FFF7B3FE050091
:104700000F4600D00120014349000B484908411AD7
:10471000C90F0DD0002E01D0012100E000210C4373
:1047200061004908401AC00F02D10120FFF734FF91
:1047300028463946F8BD00000000F07F0D0A202011
:104740005B4552524F525D2020766F6C74616765F5
:104750002076616C7565206F66202056494E5F4457
:1047600045544543542069732025642C2041445FFF
:10477000446174615B315D3D25642E286164632E64
:10478000632D323830206C696E652920200D0A00B7
:104790000D0A20205B4552524F525D2020766F6CEF
:1047A000746167652076616C7565206F66202056A0
:1047B000494E5F4445544543542069732025642C79
:1047C0002041445F446174615B325D3D25642E2865
:1047D0006164632E632D323637206C696E65292043
:1047E000200D0A000D0A20205B4552524F525D20D9
:1047F00020766F6C746167652076616C7565206FDB
:1048000066202056494E5F44455445435420697301
:104810002025642C2041445F446174615B315D3D1F
:1048200025642E286164632E632D323837206C692D
:104830006E652920200D0A000D0A205B494E464F67
:104840005D20204E6F5F636F6E6E6563745F6C6F8B
:10485000616465725F73746172745F636F756E74A7
:1048600065723D2564202C20636F6E6E6563745FF6
:104870006C6F616465725F73746172745F636F758E
:104880006E746572203D256420286B65792E632D3A
:10489000313637206C696E652920200D0A00000032
:1048A0000D0A205B494E464F5D204E6F5F636F6E71
:1048B0006E6563745F6C6F616465725F636C6F7368
:1048C000655F666C6167203D25642C5265735F5699
:1048D000616C75655F457863657074696F6E5F665E
:1048E0006C6167203D2564286B65792E632D333616
:1048F00038206C696E652920200D0A000D0A205BA6
:10490000494E464F5D204C4F41445F44455445431A
:10491000545F657863657074696F6E5F666C61671C
:10492000203D25642C56494E5F4445544543545F11
:10493000657863657074696F6E5F666C6167203D52
:104940002564286B65792E632D333638206C696EAB
:10495000652920200D0A00000D0A205B494E464FB4
:104960005D2054696D654F75745F666C6167203DAD
:1049700025642C4F75747075745F566F6C74616725
:10498000655F657863657074696F6E5F666C61679B
:10499000203D2564286B65792E632D333638206CD5
:1049A000696E652920200D0A000000000D0A2020F4
:1049B0005B4552524F525D2020204F7574707574C4
:1049C00020766F6C74616765206973206578636514
:1049D0007074696F6E2E564F55545F44455445436D
:1049E00054203D2025642C41445F446174615B3355
:1049F0005D203D20256420202874696D652E632D7F
:104A0000333738206C696E652920200D0A000000BC
:104A1000304A000800000020880000007A450008A5
:104A2000B84A000888000020580B00008A4500089A
:104A30000000000001020304010203040607080944
:104A40000000000000000000000200000000000064
:104A50000000000000000000000000000000000056
:104A60000000000000000000000000000000000046
:104A70000000000000000000000000000000000036
:104A8000000000000000000002000000000080BFE5
:104A9000000000000000000000000000006CDC02CC
:104AA00000000000000000000102030406070809DE
:084AB0000000000000000000FE
:0400000508003B595B
:00000001FF
